:020000001B2BB8
:0E000600F201F101F001F801F30100300800F1
:100014007B15FB1F14280130F300F201F101F001FC
:08002400FA0DF20CFF30080098
:08002C00FA1FF2130030080076
:10003400FB14FB1F2428FF30F300F200F100F00052
:08004400FA0DF20CFF30080078
:10004C007C185C28FC182D287C197B282628A001FC
:10005C007208031D4D287108F2007008F100780831
:10006C00F000F801A0157208031D4D287108F2006C
:10007C007008F100F001A01120167208031D4D2824
:10008C007108F200F101A015720803196F282008FD
:10009C00F302031D031C73280310F21B5C28F80DDC
:1000AC00F00DF10DF20DF30B532873287B1B701C14
:1000BC007728F81F7728F00A0319F10A0319F20AB6
:1000CC00031D7728F20CF10CF00CF30A03197B28B2
:1000DC0077280130FC0003207E280230FC000A2027
:1000EC007E280430FC0016207E280830FC001A20E4
:0400FC0000000800F8
:10010000A0017208031D95287108F2007008F10023
:10011000F001A0157208031D95287108F200F10185
:10012000A011201672080319A3282008F302031D4A
:10013000031CA7280310F21BAB28F00DF10DF20DE4
:10014000F30B9B28A7280130FC000320AE280230C7
:0E015000FC000A20AE280430FC001620080037
:10015E008312031372087606A000F801F9017308E2
:10016E007702031CD2287708FD007308F7007D087C
:10017E00F3007608FD007208F6007D08F20075089F
:10018E00FD007108F5007D08F1007408FD0070088F
:10019E00F4007D08F000770803194B297208FA0065
:1001AE00F217F61777087302F700031905290830BE
:1001BE007702031CFB28F7007408F9007508F40099
:1001CE007608F500F60108307702031CFB28F700CD
:1001DE007408F9007508F400F50108307702031C65
:1001EE00FB287A08F2004B2977080319052903101A
:1001FE00F60CF50CF40CF90CF70BFE28A01F1229C7
:10020E00F909F409F509F609F90A0319F40A0319AB
:10021E00F50A0319F60A7908F80774080318740F1B
:10022E00F00775080318750FF10776080318760F97
:10023E00F207A01B2B29031C3B29F20CF10CF00C2E
:10024E00F80CF30F3B29472903183F29F809F00949
:10025E00F109F209F80A0319F00A0319F10A031950
:10026E00F20A8030FA0643290130FC0026204D297F
:10027E000230FC0026204D290430FC0080204D2940
:10028E000830FC001A204D290030FC000000080048
:10029E007B14FB1F5A29F201FA1FFF30F200F10006
:0A02AE00F000FA0DF20CFF3008001A
:1002B8000E3083120313FD00FD0B602900000800B7
:0602C800FB15FF300800E9
:1002CE00831203137408003A031D82297508003A3D
:1002DE00031D82297608003A031D82297708003A09
:1002EE00031D8229FF30F000FF30F1007F30F20055
:1002FE00FF30F3001D2A8312031377080319112A06
:10030E0073080319142A720876068039FA00F21758
:10031E00F617A0017208F8007108FC007008FD00C5
:10032E007408FD027508031C750FFC027608031C89
:10033E00760FF802F801FC01FD01031CAD29031034
:10034E00F20CF10CF00CF80C0130A0007708F3025F
:10035E00031CB7297E302007F3070318172ABC2980
:10036E007E302007F307031C1A2A1830FA07FD0DFA
:10037E00FC0DF80DF00DF10DF20DA00D7408F0024C
:10038E007508031C750FF1027608031C760FF20236
:10039E00760DA004201CD5297D14E0297408F007E1
:1003AE0075080318750FF10776080318760AF20719
:1003BE007D10FA031F307A05031DBE297B1B7D1CA1
:1003CE00072A0310F00DF10DF20DA00D7408F002C6
:1003DE007508031C750FF1027608031C760FF202E6
:1003EE00760D20040139FD070318FC0A0319F80ADB
:1003FE00031D072AF80CFC0CFD0CF30A0319172A2F
:10040E00FA1FF8137808F2007C08F1007D08F0005E
:10041E0000301C2A013064211C2A023003201C2AC1
:0E042E0004301A201C2A08300A2000000800A2
:10043C0083120313FB01730803195B2A7208FA0079
:10044C00F2178E30F302F31F5E2AF309F30A083019
:10045C007302031C412AF300F10D7208F100F20142
:10046C0008307302031C412AF300F10DF1017308EB
:10047C00031D0310492A73080319492A0310F20CAF
:10048C00F10CF30B442A7B1B711C532A031C532ABB
:10049C00F10A0319F20AF21B6A2AFA1F6D2AF209F1
:1004AC00F109F10A0319F20A6D2AF201F1016D2A20
:1004BC007B14FB1F702AF201FA1F702AFF30F20026
:1004CC00F100FA0DF20C702A0130FC00722A003097
:1004DC00FC00722AFF30FC00FC080319762A4F211D
:0A04EC007108F0007208F10008002A
:0C04F600831203138030F606AF200800CC
:10050200831203137008F8007108F000F101F20180
:10051200F301FB01FC019630F300FA017008F100CF
:0C0522007808F000F801F20180200800C9
:0E052E008312031328088A00270882000800A1
:10053C00831203139F01C0309F042109F00070083F
:10054C0083169F051F179F1783122908F000F00DC3
:10055C007010F00D7010F00D701070089F041F14C7
:10056C005C211F151F1DBC2A0000B82A1F101E0875
:10057C00F100F00183161E08F0040030F1040800AD
:10058C0097228A110A128000840AA70A0319A80A62
:08059C00F003031DC62A08004C
:1005A40083120313A9019E2281220A30F400D7305A
:1005B400F5002330F6008230F70067217008F4005C
:1005C4007108F5007208F6007308F7000030F000B7
:1005D4000030F1004830F2008530F3007B221E2207
:1005E4007008A5007108A60080307106F200803002
:1005F4007202031DFF2A50307002031C032B861065
:06060400042B861408001F
:10060A00FF3083120313A200FF30A300FF30A400BF
:10061A00FF309F01C0309F042109F0007008831643
:0C062A009F051F179F1783121F14080064
:100636002C23831603138601831286010523D222F7
:04064600222B242B14
:1006580021308400013083120313F0002A30A700F0
:080668000330A800C6220800BF
:020654000F3461
:02400E004A2F37
:00000001FF
